:100000000C9434000C9451000C9451000C94510049
:100010000C9451000C9451000C9451000C9451001C
:100020000C9451000C9451000C9451000C9451000C
:100030000C9451000C9451000C94B7030C94510093
:100040000C9451000C9451000C94DC030C9451005E
:100050000C9451000C9451000C9451000C945100DC
:100060000C9451000C94510011241FBECFEFD8E026
:10007000DEBFCDBF11E0A0E0B1E0EAE5F9E002C0EB
:1000800005900D92A234B107D9F711E0A2E4B1E0D6
:1000900001C01D92A139B107E1F70E94FE010C9445
:1000A000AB040C9400006F927F928F929F92AF925C
:1000B000BF92DF92EF92FF920F931F93CF93DF9344
:1000C0003DE4E32E31E0F32E28E0D22E10E0C1E033
:1000D000D0E094E0A92EB12CAE0CBF1C350180E419
:1000E000882E8FE1982EF3C08081883018F48AB171
:1000F0001AB80DC024B190E00897AE0102C0440FB9
:10010000551F8A95E2F7CA018095822384B93196FA
:10011000AE16BF0649F7F7018081883050F42AB146
:10012000AE0102C0440F551F8A95E2F7242B2AB96D
:100130000BC024B190E00897FE0102C0EE0FFF1F34
:100140008A95E2F72E2B24B9C4010197F1F7A9E4AF
:10015000B1E0FD0100E063E070E040814830D8F498
:1001600089B19E01042E02C0220F331F0A94E2F7C8
:1001700090E02823392302C0359527954A95E2F768
:100180002130310531F5062E02C0220F331F0A94AB
:10019000E2F7022B1FC023B1842F90E00897AE0135
:1001A000082E02C0440F551F0A94E2F730E04223A4
:1001B000532302C0559547958A95E2F74130510582
:1001C00041F4062E02C0440F551F0A94E2F7042B97
:1001D00001C000E031966150704041E0ED34F40719
:1001E00009F0BBCF8C91883050F42BB1FE0102C0D6
:1001F000EE0FFF1F8A95E2F72E2B2BB90BC025B10E
:1002000090E00897AE0102C0440F551F8A95E2F7AF
:10021000242B25B9119651E0AD34B50719F7802F7D
:1002200080958295807F8D29883C69F1893C90F486
:10023000883839F1893838F4823899F1843849F1AD
:100240008138F1F536C0823C71F1843C21F1813C6A
:10025000B9F531C0883EC9F0893E38F4823E29F1B3
:10026000843ED9F0813E61F528C0823F01F1833F91
:1002700018F4813F29F523C0843F89F0883F01F5B8
:1002800006C011E31DC012E31BC013E319C011E443
:1002900017C014E315C015E313C016E311C012E430
:1002A0000FC017E30DC018E30BC019E309C013E436
:1002B00007C01AE205C010E303C013E201C014E452
:1002C0000894E11CF11C6E147F0421F0D694EDE437
:1002D000F1E00ACF812FDF91CF911F910F91FF9015
:1002E000EF90DF90BF90AF909F908F907F906F9036
:1002F0000895FC0180819181A281B38180934D0199
:1003000090934E01A0934F01B0935001FB01808167
:100310009181A281B3818093490190934A01A09376
:100320004B01B0934C0185B78F7E85BFA9E4B1E046
:10033000FD0141E050E08081883018F48AB11AB89C
:100340000DC024B190E00897BA0102C0660F771F74
:100350008A95E2F7CB018095822384B9319671E0CA
:10036000ED34F70741F741E050E08C91883050F4CC
:100370002BB1FA0102C0EE0FFF1F8A95E2F72E2B78
:100380002BB90BC025B190E00897BA0102C0660FE7
:10039000771F8A95E2F7262B25B9119671E0AD34C7
:1003A000B70719F7089582E084BD93E095BD99EFF2
:1003B00097BD80936E0078940895EF92FF920F930B
:1003C0001F937B018C010E94D30180914201909187
:1003D0004301A0914401B091450120E08E199F098D
:1003E000A00BB10B885E9340A040B04008F021E024
:1003F000822F1F910F91FF90EF90089560E875E2B2
:1004000080E090E00E94080480E065E041E00E9406
:100410002C0380E090E00895DF93CF93CDB7DEB753
:1004200028970FB6F894DEBF0FBECDBF8BE089834F
:100430008AE08A8389E08B8388E08C8387E08D83E0
:1004400086E08E8385E08F8384E0888760E875E2AC
:1004500080E090E00E940804CE010196BE016B5F2F
:100460007F4F0E9479010E94530090E0823F09F47F
:1004700091E0892F28960FB6F894DEBF0FBECDBF4E
:10048000CF91DF9108959B01AC0156954795379523
:100490002795B901CA01089580E065E041E00E9416
:1004A0002C0380E065E041E00E94D902089580E0DD
:1004B00065E041E00E942C0380E065E040E00E949E
:1004C000D902089560E875E280E090E00E94080497
:1004D00080E091E00E943304089560E875E280E0D6
:1004E00090E00E94080489E091E00E94330408959E
:1004F00060E875E280E090E00E94080488E191E005
:100500000E9433040895CF92DF92EF92FF920F93EF
:100510001F93D82EC62E79018A0141E00E94D9028C
:10052000C801B7010E9443027B018C010E947F0336
:100530008D2D6C2D40E00E94D902C801B7010E94A8
:100540007F031F910F91FF90EF90DF90CF90089560
:10055000AF92BF92CF92DF92EF92FF920F931F93D1
:10056000A82EB62E69017A0110E007C08A2D6B2DE6
:10057000A70196010E9483021F5F1017B8F31F9115
:100580000F91FF90EF90DF90CF90BF90AF900895C4
:100590000F9380E065E041E00E942C0380E065E07D
:1005A00028EE33E040E050E001E00E94A8020F9105
:1005B00008958130F9F0813020F0823009F04BC08D
:1005C00032C0413059F425B181E090E002C0880F7B
:1005D000991F6A95E2F7282B25B9089525B181E086
:1005E00090E002C0880F991F6A95E2F780958223F8
:1005F00085B90895413059F428B181E090E002C0F6
:10060000880F991F6A95E2F7282B28B9089528B119
:1006100081E090E002C0880F991F6A95E2F780950B
:10062000822388B90895413059F42BB181E090E0DC
:1006300002C0880F991F6A95E2F7282B2BB90895FD
:100640002BB181E090E002C0880F991F6A95E2F714
:10065000809582238BB908958130F9F0813020F0A4
:10066000823009F04BC032C0413059F424B181E0EE
:1006700090E002C0880F991F6A95E2F7282B24B9F1
:10068000089524B181E090E002C0880F991F6A9517
:10069000E2F78095822384B90895413059F427B157
:1006A00081E090E002C0880F991F6A95E2F7282B3D
:1006B00027B9089527B181E090E002C0880F991F03
:1006C0006A95E2F78095822387B90895413059F4FD
:1006D0002AB181E090E002C0880F991F6A95E2F785
:1006E000282B2AB908952AB181E090E002C0880F32
:1006F000991F6A95E2F7809582238AB90895EF924F
:10070000FF920F931F937B018C0120914201309146
:1007100043014091440150914501809142019091E3
:100720004301A0914401B0914501821B930BA40B9E
:10073000B50B8E159F05A007B10778F320914201F4
:10074000309143014091440150914501B901CA01E2
:100750001F910F91FF90EF90089582E084BD93E088
:1007600095BD99EF97BD80936E00789408951F9280
:100770000F920FB60F9211248F939F93AF93BF9355
:100780008091420190914301A0914401B0914501B3
:100790000196A11DB11D8093420190934301A09346
:1007A0004401B0934501BF91AF919F918F910F90FC
:1007B0000FBE0F901F9018951F920F920FB60F92B9
:1007C00011248F939F93EF93FF9380914801909111
:1007D000C600E82FF0E0EF5AFE4F90838F5F8093C2
:1007E0004801809148018F738093480180914601B0
:1007F000803428F4809146018F5F80934601FF91F9
:10080000EF919F918F910F900FBE0F901F901895B1
:100810009B01AC0180E28093C00088E98093C10015
:1008200086E08093C20084E0220F331F441F551FCF
:100830008A95D1F760E074E284EF90E00E94890429
:10084000215030403093C5002093C400789408951F
:10085000809146010895982F8091C00085FFFCCFBC
:100860009093C6000895FC0107C08091C00085FFE9
:10087000FCCF9093C600319690819923B1F70895EB
:100880009C01F9012F5F3F4F9491992339F080919A
:10089000C00085FFFCCF9093C600F3CF08958091F0
:1008A0004601882311F4EFEF14C080914701E82F2F
:1008B000F0E0EF5AFE4FE0818F5F80934701809117
:1008C00047018F7380934701809146018150809347
:1008D00046018E2F0895EF92FF921F93CF93DF93DF
:1008E0007C0110E006C00E944F04CE0DDF1D8883FE
:1008F0001F5F80914601C12FD0E08823A1F7CE0D64
:10090000DF1D1882812FDF91CF911F91FF90EF9013
:100910000895A1E21A2EAA1BBB1BFD010DC0AA1F40
:10092000BB1FEE1FFF1FA217B307E407F50720F058
:10093000A21BB30BE40BF50B661F771F881F991FD3
:100940001A9469F760957095809590959B01AC011C
:0A095000BD01CF010895F894FFCF18
:10095A0043757474696E67210054696D65207B6DF7
:10096A006D7D3A7B73737D005472616E736163743B
:10097A00696F6E2066726F6D207B73746174657D1A
:10098A0020746F207B6E6578745F73746174657D03
:02099A0000005B
:00000001FF
