:100000000C9434000C9451000C9451000C94510049
:100010000C9451000C9451000C9451000C9451001C
:100020000C9451000C9451000C9451000C9451000C
:100030000C9451000C9451000C9403040C94510046
:100040000C9451000C9451000C9428040C94510011
:100050000C9451000C9451000C9451000C945100DC
:100060000C9451000C94510011241FBECFEFD8E026
:10007000DEBFCDBF11E0A0E0B1E0E2EFF9E002C0E9
:1000800005900D92AA34B107D9F711E0AAE4B1E0C6
:1000900001C01D92A939B107E1F70E9433020C9407
:1000A000F7040C940000EF92FF920F931F937B01D3
:1000B0008C010E94290280914A0190914B01A091EC
:1000C0004C01B0914D0120E08E199F09A00BB10B9E
:1000D000885E9340A040B04008F021E0822F1F913D
:1000E0000F91FF90EF900895DF93CF93CDB7DEB7D8
:1000F00028970FB6F894DEBF0FBECDBF8BE0898383
:100100008AE08A8389E08B8388E08C8387E08D8313
:1001100086E08E8385E08F8384E0888780E895E29F
:100120000E945404CE010196BE016B5F7F4F0E9476
:10013000CF010E94A90090E0823F09F491E0892F4D
:1001400028960FB6F894DEBF0FBECDBFCF91DF91DA
:1001500008956F927F928F929F92AF92BF92DF929B
:10016000EF92FF920F931F93CF93DF9335E5E32E2A
:1001700031E0F32E28E0D22E10E0C1E0D0E094E090
:10018000A92EB12CAE0CBF1C350180E4882E8FE166
:10019000982EF3C08081883018F48AB11AB80DC047
:1001A00024B190E00897AE0102C0440F551F8A9514
:1001B000E2F7CA018095822384B93196AE16BF0654
:1001C00049F7F7018081883050F42AB1AE0102C0AE
:1001D000440F551F8A95E2F7242B2AB90BC024B18E
:1001E00090E00897FE0102C0EE0FFF1F8A95E2F72C
:1001F0002E2B24B9C4010197F1F7A1E5B1E0FD016F
:1002000000E063E070E040814830D8F489B19E019D
:10021000042E02C0220F331F0A94E2F790E0282335
:10022000392302C0359527954A95E2F721303105EB
:1002300031F5062E02C0220F331F0A94E2F7022B7B
:100240001FC023B1842F90E00897AE01082E02C092
:10025000440F551F0A94E2F730E04223532302C0B3
:10026000559547958A95E2F74130510541F4062EA0
:1002700002C0440F551F0A94E2F7042B01C000E0AE
:1002800031966150704041E0E535F40709F0BBCF8D
:100290008C91883050F42BB1FE0102C0EE0FFF1F8D
:1002A0008A95E2F72E2B2BB90BC025B190E0089769
:1002B000AE0102C0440F551F8A95E2F7242B25B9E1
:1002C000119651E0A535B50719F7802F80958295D5
:1002D000807F8D29883C69F1893C90F4883839F118
:1002E000893838F4823899F1843849F18138F1F548
:1002F00036C0823C71F1843C21F1813CB9F531C0BA
:10030000883EC9F0893E38F4823E29F1843ED9F016
:10031000813E61F528C0823F01F1833F18F4813F9F
:1003200029F523C0843F89F0883F01F506C011E319
:100330001DC012E31BC013E319C011E417C014E37E
:1003400015C015E313C016E311C012E40FC017E384
:100350000DC018E30BC019E309C013E407C01AE28B
:1003600005C010E303C013E201C014E40894E11CCB
:10037000F11C6E147F0421F0D694E5E5F1E00ACF7C
:10038000812FDF91CF911F910F91FF90EF90DF9020
:10039000BF90AF909F908F907F906F900895FC01D9
:1003A00080819181A281B381809355019093560100
:1003B000A0935701B0935801FB0180819181A281E4
:1003C000B3818093510190935201A0935301B09354
:1003D000540185B78F7E85BFA1E5B1E0FD0141E005
:1003E00050E08081883018F48AB11AB80DC024B169
:1003F00090E00897BA0102C0660F771F8A95E2F76E
:10040000CB018095822384B9319671E0E535F707F9
:1004100041F741E050E08C91883050F42BB1FA0163
:1004200002C0EE0FFF1F8A95E2F72E2B2BB90BC0EF
:1004300025B190E00897BA0102C0660F771F8A9530
:10044000E2F7262B25B9119671E0A535B70719F704
:10045000089582E084BD93E095BD99EF97BD8093A8
:100460006E0078940895FF920F931F9360E875E2F1
:1004700080E090E00E94540480E065E041E00E944A
:1004800078030E94290210E0123009F11123E1F7EC
:100490000E9474048823E1F30E949B04823421F4B7
:1004A0000E94F90280E02DC0833449F40E94DD02ED
:1004B00080E063E00E941A0313E0FF24E5CF0E946E
:1004C000DD0280E062E00E941A0300E012E00E9478
:1004D00074048823E1F30E949B04982F80538A3090
:1004E00058F4043648F40E94DD02802F90E06F2D0E
:1004F00070E00E940F03C8CF923441F40E94F902C9
:1005000082E061E00E941A0311E0BECF0E94DD028A
:1005100082E063E00E941A0300E013E0B5CF9B0184
:10052000AC015695479537952795B901CA010895AD
:10053000CF92DF92EF92FF920F931F93D82EC62E89
:1005400079018A0141E00E942503C801B7010E9498
:100550008F027B018C010E94CB038D2D6C2D40E01E
:100560000E942503C801B7010E94CB031F910F9180
:10057000FF90EF90DF90CF900895AF92BF92CF920F
:10058000DF92EF92FF920F931F93A82EB62E690170
:100590007A0110E007C08A2D6B2DA70196010E94F9
:1005A00098021F5F1017B8F31F910F91FF90EF9003
:1005B000DF90CF90BF90AF9008950F9380E065E0FB
:1005C00041E00E94780380E065E028EE33E040E0FF
:1005D00050E001E00E94BD020F91089580E065E0C7
:1005E00041E00E94780380E065E041E00E9425033D
:1005F000089580E065E041E00E94780380E065E0D6
:1006000040E00E942503089560E875E280E090E0F4
:100610000E94540480E091E00E947F04089560E805
:1006200075E280E090E00E94540489E091E00E942D
:100630007F04089560E875E280E090E00E94540431
:1006400089E191E00E947F0408958130F9F08130C2
:1006500020F0823009F04BC032C0413059F425B14E
:1006600081E090E002C0880F991F6A95E2F7282B7D
:1006700025B9089525B181E090E002C0880F991F47
:100680006A95E2F78095822385B90895413059F43F
:1006900028B181E090E002C0880F991F6A95E2F7C7
:1006A000282B28B9089528B181E090E002C0880F76
:1006B000991F6A95E2F78095822388B908954130A1
:1006C00059F42BB181E090E002C0880F991F6A9520
:1006D000E2F7282B2BB908952BB181E090E002C0FE
:1006E000880F991F6A95E2F7809582238BB9089548
:1006F0008130F9F0813020F0823009F04BC032C0F7
:10070000413059F424B181E090E002C0880F991F74
:100710006A95E2F7282B24B9089524B181E090E08E
:1007200002C0880F991F6A95E2F78095822384B9E9
:100730000895413059F427B181E090E002C0880F5C
:10074000991F6A95E2F7282B27B9089527B181E010
:1007500090E002C0880F991F6A95E2F78095822386
:1007600087B90895413059F42AB181E090E002C080
:10077000880F991F6A95E2F7282B2AB908952AB1A4
:1007800081E090E002C0880F991F6A95E2F780959A
:1007900082238AB90895EF92FF920F931F937B01F2
:1007A0008C0120914A0130914B0140914C015091B4
:1007B0004D0180914A0190914B01A0914C01B09163
:1007C0004D01821B930BA40BB50B8E159F05A00743
:1007D000B10778F320914A0130914B0140914C01CF
:1007E00050914D01B901CA011F910F91FF90EF90F7
:1007F000089582E084BD93E095BD99EF97BD809305
:100800006E00789408951F920F920FB60F921124E4
:100810008F939F93AF93BF9380914A0190914B0127
:10082000A0914C01B0914D010196A11DB11D809385
:100830004A0190934B01A0934C01B0934D01BF919D
:10084000AF919F918F910F900FBE0F901F901895B1
:100850001F920F920FB60F9211248F939F93EF93D5
:10086000FF93809150019091C600E82FF0E0E75A85
:10087000FE4F90838F5F80935001809150018F7362
:100880008093500180914E01803428F480914E0174
:100890008F5F80934E01FF91EF919F918F910F9009
:1008A0000FBE0F901F9018959B01AC0180E28093C2
:1008B000C00088E98093C10086E08093C20084E094
:1008C000220F331F441F551F8A95D1F760E074E251
:1008D00084EF90E00E94D504215030403093C50051
:1008E0002093C4007894089580914E010895982F24
:1008F0008091C00085FFFCCF9093C6000895FC0155
:1009000007C08091C00085FFFCCF9093C600319650
:1009100090819923B1F708959C01F9012F5F3F4F12
:100920009491992339F08091C00085FFFCCF90937A
:10093000C600F3CF089580914E01882311F4EFEFA4
:1009400014C080914F01E82FF0E0E75AFE4FE0819C
:100950008F5F80934F0180914F018F7380934F0180
:1009600080914E01815080934E018E2F0895EF9219
:10097000FF921F93CF93DF937C0110E006C00E948B
:100980009B04CE0DDF1D88831F5F80914E01C12F18
:10099000D0E08823A1F7CE0DDF1D1882812FDF91D3
:1009A000CF911F91FF90EF900895A1E21A2EAA1BFC
:1009B000BB1BFD010DC0AA1FBB1FEE1FFF1FA2170F
:1009C000B307E407F50720F0A21BB30BE40BF50B0C
:1009D000661F771F881F991F1A9469F76095709595
:1009E000809590959B01AC01BD01CF010895F894CD
:0209F000FFCF37
:1009F20043757474696E67210054696D65207B6D5F
:100A02006D7D3A7B73737D2E005472616E736163E8
:100A120074696F6E2066726F6D20737461746520E5
:100A22007B73746174657D20746F207B6E6578744E
:0A0A32005F73746174657D2E00008F
:00000001FF
